{
  "_format": "hh-sol-artifact-1",
  "contractName": "T8",
  "sourceName": "contracts/T8.sol",
  "abi": [
    {
      "inputs": [
        {
          "internalType": "uint256",
          "name": "i",
          "type": "uint256"
        }
      ],
      "name": "get",
      "outputs": [
        {
          "internalType": "string",
          "name": "",
          "type": "string"
        }
      ],
      "stateMutability": "view",
      "type": "function"
    }
  ],
  "bytecode": "0x608060405260405180606001604052806040518060400160405280600581526020017f616c69636500000000000000000000000000000000000000000000000000000081525081526020016040518060400160405280600381526020017f626f62000000000000000000000000000000000000000000000000000000000081525081526020016040518060400160405280600381526020017f657665000000000000000000000000000000000000000000000000000000000081525081525060009060036100ce9291906100e1565b503480156100db57600080fd5b506104dd565b828054828255906000526020600020908101928215610129579160200282015b82811115610128578251829081610118919061040b565b5091602001919060010190610101565b5b509050610136919061013a565b5090565b5b8082111561015a5760008181610151919061015e565b5060010161013b565b5090565b50805461016a90610224565b6000825580601f1061017c575061019b565b601f01602090049060005260206000209081019061019a919061019e565b5b50565b5b808211156101b757600081600090555060010161019f565b5090565b600081519050919050565b7f4e487b7100000000000000000000000000000000000000000000000000000000600052604160045260246000fd5b7f4e487b7100000000000000000000000000000000000000000000000000000000600052602260045260246000fd5b6000600282049050600182168061023c57607f821691505b60208210810361024f5761024e6101f5565b5b50919050565b60008190508160005260206000209050919050565b60006020601f8301049050919050565b600082821b905092915050565b6000600883026102b77fffffffffffffffffffffffffffffffffffffffffffffffffffffffffffffffff8261027a565b6102c1868361027a565b95508019841693508086168417925050509392505050565b6000819050919050565b6000819050919050565b60006103086103036102fe846102d9565b6102e3565b6102d9565b9050919050565b6000819050919050565b610322836102ed565b61033661032e8261030f565b848454610287565b825550505050565b600090565b61034b61033e565b610356818484610319565b505050565b5b8181101561037a5761036f600082610343565b60018101905061035c565b5050565b601f8211156103bf5761039081610255565b6103998461026a565b810160208510156103a8578190505b6103bc6103b48561026a565b83018261035b565b50505b505050565b600082821c905092915050565b60006103e2600019846008026103c4565b1980831691505092915050565b60006103fb83836103d1565b9150826002028217905092915050565b610414826101bb565b67ffffffffffffffff81111561042d5761042c6101c6565b5b6104378254610224565b61044282828561037e565b600060209050601f8311600181146104755760008415610463578287015190505b61046d85826103ef565b8655506104d5565b601f19841661048386610255565b60005b828110156104ab57848901518255600182019150602085019450602081019050610486565b868310156104c857848901516104c4601f8916826103d1565b8355505b6001600288020188555050505b505050505050565b6102ef806104ec6000396000f3fe608060405234801561001057600080fd5b506004361061002b5760003560e01c80639507d39a14610030575b600080fd5b61004a6004803603810190610045919061014b565b610060565b6040516100579190610208565b60405180910390f35b6060600082815481106100765761007561022a565b5b90600052602060002001805461008b90610288565b80601f01602080910402602001604051908101604052809291908181526020018280546100b790610288565b80156101045780601f106100d957610100808354040283529160200191610104565b820191906000526020600020905b8154815290600101906020018083116100e757829003601f168201915b50505050509050919050565b600080fd5b6000819050919050565b61012881610115565b811461013357600080fd5b50565b6000813590506101458161011f565b92915050565b60006020828403121561016157610160610110565b5b600061016f84828501610136565b91505092915050565b600081519050919050565b600082825260208201905092915050565b60005b838110156101b2578082015181840152602081019050610197565b60008484015250505050565b6000601f19601f8301169050919050565b60006101da82610178565b6101e48185610183565b93506101f4818560208601610194565b6101fd816101be565b840191505092915050565b6000602082019050818103600083015261022281846101cf565b905092915050565b7f4e487b7100000000000000000000000000000000000000000000000000000000600052603260045260246000fd5b7f4e487b7100000000000000000000000000000000000000000000000000000000600052602260045260246000fd5b600060028204905060018216806102a057607f821691505b6020821081036102b3576102b2610259565b5b5091905056fea2646970667358221220638498e7278307d6a7e509372b4208f545253b53271bcb7eec97fd955e70fae164736f6c63430008110033",
  "linkReferences": {},
  "deployedLinkReferences": {}
}